{
  "_format": "hh-sol-artifact-1",
  "contractName": "CharityFunding",
  "sourceName": "contracts/CharityFunding.sol",
  "abi": [
    {
      "inputs": [
        {
          "internalType": "uint256",
          "name": "_goal",
          "type": "uint256"
        },
        {
          "internalType": "uint256",
          "name": "_deadline",
          "type": "uint256"
        },
        {
          "internalType": "address",
          "name": "_admin",
          "type": "address"
        }
      ],
      "stateMutability": "nonpayable",
      "type": "constructor"
    },
    {
      "anonymous": false,
      "inputs": [
        {
          "indexed": false,
          "internalType": "address",
          "name": "_sender",
          "type": "address"
        },
        {
          "indexed": false,
          "internalType": "uint256",
          "name": "_value",
          "type": "uint256"
        }
      ],
      "name": "ContributeEvent",
      "type": "event"
    },
    {
      "inputs": [],
      "name": "contribute",
      "outputs": [],
      "stateMutability": "payable",
      "type": "function"
    },
    {
      "inputs": [],
      "name": "getBalance",
      "outputs": [
        {
          "internalType": "uint256",
          "name": "",
          "type": "uint256"
        }
      ],
      "stateMutability": "view",
      "type": "function"
    },
    {
      "stateMutability": "payable",
      "type": "receive"
    }
  ],
  "bytecode": "0x608060405234801561001057600080fd5b506040516106a43803806106a4833981810160405281019061003291906100d9565b670de0b6b3a764000083610046919061017e565b60048190555081426100589190610128565b600581905550806000806101000a81548173ffffffffffffffffffffffffffffffffffffffff021916908373ffffffffffffffffffffffffffffffffffffffff1602179055506103e8600381905550505050610271565b6000815190506100be81610243565b92915050565b6000815190506100d38161025a565b92915050565b6000806000606084860312156100ee57600080fd5b60006100fc868287016100c4565b935050602061010d868287016100c4565b925050604061011e868287016100af565b9150509250925092565b60006101338261020a565b915061013e8361020a565b9250827fffffffffffffffffffffffffffffffffffffffffffffffffffffffffffffffff0382111561017357610172610214565b5b828201905092915050565b60006101898261020a565b91506101948361020a565b9250817fffffffffffffffffffffffffffffffffffffffffffffffffffffffffffffffff04831182151516156101cd576101cc610214565b5b828202905092915050565b60006101e3826101ea565b9050919050565b600073ffffffffffffffffffffffffffffffffffffffff82169050919050565b6000819050919050565b7f4e487b7100000000000000000000000000000000000000000000000000000000600052601160045260246000fd5b61024c816101d8565b811461025757600080fd5b50565b6102638161020a565b811461026e57600080fd5b50565b610424806102806000396000f3fe60806040526004361061002d5760003560e01c806312065fe014610041578063d7bb99ba1461006c5761003c565b3661003c5761003a610076565b005b600080fd5b34801561004d57600080fd5b506100566101da565b60405161006391906102af565b60405180910390f35b610074610076565b005b60055442106100ba576040517f08c379a00000000000000000000000000000000000000000000000000000000081526004016100b19061028f565b60405180910390fd5b6003543410156100ff576040517f08c379a00000000000000000000000000000000000000000000000000000000081526004016100f69061026f565b60405180910390fd5b6000600660003373ffffffffffffffffffffffffffffffffffffffff1673ffffffffffffffffffffffffffffffffffffffff168152602001908152602001600020505034600660003373ffffffffffffffffffffffffffffffffffffffff1673ffffffffffffffffffffffffffffffffffffffff16815260200190815260200160002081905550346002600082825461019891906102db565b925050819055507f2daf61dec57a2c194e9e87958b1a40a5c236b5e8c6041655d664ddbd16c2932033346040516101d0929190610246565b60405180910390a1565b600047905090565b6101eb81610331565b82525050565b60006101fe601e836102ca565b91506102098261039c565b602082019050919050565b60006102216011836102ca565b915061022c826103c5565b602082019050919050565b61024081610363565b82525050565b600060408201905061025b60008301856101e2565b6102686020830184610237565b9392505050565b60006020820190508181036000830152610288816101f1565b9050919050565b600060208201905081810360008301526102a881610214565b9050919050565b60006020820190506102c46000830184610237565b92915050565b600082825260208201905092915050565b60006102e682610363565b91506102f183610363565b9250827fffffffffffffffffffffffffffffffffffffffffffffffffffffffffffffffff038211156103265761032561036d565b5b828201905092915050565b600061033c82610343565b9050919050565b600073ffffffffffffffffffffffffffffffffffffffff82169050919050565b6000819050919050565b7f4e487b7100000000000000000000000000000000000000000000000000000000600052601160045260246000fd5b7f4d696e696d756d20636f6e747269627574696f6e206e6f74206d656574210000600082015250565b7f5468652074696d65206973206f7665722100000000000000000000000000000060008201525056fea264697066735822122026fcf235fd949e240081de5727bee55ed81794f0c488e09dce1dd3cf655374ff64736f6c63430008040033",
  "linkReferences": {},
  "deployedLinkReferences": {}
}