{
    "_format": "hh-sol-artifact-1",
    "contractName": "FundingCreator",
    "sourceName": "contracts/CharityFunding.sol",
    "abi": [
        {
            "anonymous": false,
            "inputs": [],
            "name": "newFundingEvent",
            "type": "event"
        },
        {
            "inputs": [],
            "name": "allFundings",
            "outputs": [
                {
                    "internalType": "contract CharityFunding[]",
                    "name": "",
                    "type": "address[]"
                }
            ],
            "stateMutability": "view",
            "type": "function"
        },
        {
            "inputs": [
                {
                    "internalType": "uint256",
                    "name": "fundingGoal",
                    "type": "uint256"
                },
                {
                    "internalType": "uint256",
                    "name": "fundingDeadline",
                    "type": "uint256"
                },
                {
                    "internalType": "string",
                    "name": "title",
                    "type": "string"
                },
                {
                    "internalType": "string",
                    "name": "description",
                    "type": "string"
                },
                {
                    "internalType": "string",
                    "name": "urlPhoto",
                    "type": "string"
                }
            ],
            "name": "createFunding",
            "outputs": [],
            "stateMutability": "nonpayable",
            "type": "function"
        },
        {
            "inputs": [
                {
                    "internalType": "uint256",
                    "name": "",
                    "type": "uint256"
                }
            ],
            "name": "fundings",
            "outputs": [
                {
                    "internalType": "contract CharityFunding",
                    "name": "",
                    "type": "address"
                }
            ],
            "stateMutability": "view",
            "type": "function"
        }
    ],
    "bytecode": "0x608060405234801561001057600080fd5b5061189f806100206000396000f3fe60806040523480156200001157600080fd5b5060043610620000465760003560e01c806361577c55146200004b578063698daa96146200006d578063d13cb1fb146200008d575b600080fd5b62000055620000c3565b6040516200006491906200050a565b60405180910390f35b6200008b600480360381019062000085919062000334565b62000153565b005b620000ab6004803603810190620000a5919062000308565b62000231565b604051620000ba91906200052e565b60405180910390f35b606060008054806020026020016040519081016040528092919081815260200182805480156200014957602002820191906000526020600020905b8160009054906101000a900473ffffffffffffffffffffffffffffffffffffffff1673ffffffffffffffffffffffffffffffffffffffff1681526020019060010190808311620000fe575b5050505050905090565b6000858533868686604051620001699062000271565b6200017a969594939291906200054b565b604051809103906000f08015801562000197573d6000803e3d6000fd5b5090506000819080600181540180825580915050600190039060005260206000200160009091909190916101000a81548173ffffffffffffffffffffffffffffffffffffffff021916908373ffffffffffffffffffffffffffffffffffffffff1602179055507f6218ff5cc689aa1329e9b86b4ca7a03ac6fbbd922797799cb017e40afa5d3efb60405160405180910390a1505050505050565b600081815481106200024257600080fd5b906000526020600020016000915054906101000a900473ffffffffffffffffffffffffffffffffffffffff1681565b6110ad80620007bd83390190565b6000620002966200029084620005f6565b620005cd565b905082815260208101848484011115620002af57600080fd5b620002bc848285620006e7565b509392505050565b600082601f830112620002d657600080fd5b8135620002e88482602086016200027f565b91505092915050565b6000813590506200030281620007a2565b92915050565b6000602082840312156200031b57600080fd5b60006200032b84828501620002f1565b91505092915050565b600080600080600060a086880312156200034d57600080fd5b60006200035d88828901620002f1565b95505060206200037088828901620002f1565b945050604086013567ffffffffffffffff8111156200038e57600080fd5b6200039c88828901620002c4565b935050606086013567ffffffffffffffff811115620003ba57600080fd5b620003c888828901620002c4565b925050608086013567ffffffffffffffff811115620003e657600080fd5b620003f488828901620002c4565b9150509295509295909350565b60006200040f838362000496565b60208301905092915050565b620004268162000681565b82525050565b600062000439826200063c565b6200044581856200065f565b935062000452836200062c565b8060005b83811015620004895781516200046d888262000401565b97506200047a8362000652565b92505060018101905062000456565b5085935050505092915050565b620004a181620006bf565b82525050565b620004b281620006bf565b82525050565b6000620004c58262000647565b620004d1818562000670565b9350620004e3818560208601620006f6565b620004ee8162000791565b840191505092915050565b6200050481620006b5565b82525050565b600060208201905081810360008301526200052681846200042c565b905092915050565b6000602082019050620005456000830184620004a7565b92915050565b600060c082019050620005626000830189620004f9565b620005716020830188620004f9565b6200058060408301876200041b565b8181036060830152620005948186620004b8565b90508181036080830152620005aa8185620004b8565b905081810360a0830152620005c08184620004b8565b9050979650505050505050565b6000620005d9620005ec565b9050620005e782826200072c565b919050565b6000604051905090565b600067ffffffffffffffff82111562000614576200061362000762565b5b6200061f8262000791565b9050602081019050919050565b6000819050602082019050919050565b600081519050919050565b600081519050919050565b6000602082019050919050565b600082825260208201905092915050565b600082825260208201905092915050565b60006200068e8262000695565b9050919050565b600073ffffffffffffffffffffffffffffffffffffffff82169050919050565b6000819050919050565b6000620006cc82620006d3565b9050919050565b6000620006e08262000695565b9050919050565b82818337600083830152505050565b60005b8381101562000716578082015181840152602081019050620006f9565b8381111562000726576000848401525b50505050565b620007378262000791565b810181811067ffffffffffffffff8211171562000759576200075862000762565b5b80604052505050565b7f4e487b7100000000000000000000000000000000000000000000000000000000600052604160045260246000fd5b6000601f19601f8301169050919050565b620007ad81620006b5565b8114620007b957600080fd5b5056fe60806040523480156200001157600080fd5b50604051620010ad380380620010ad833981810160405281019062000037919062000272565b670de0b6b3a7640000866200004d91906200040f565b6004819055508442620000619190620003b2565b600581905550836000806101000a81548173ffffffffffffffffffffffffffffffffffffffff021916908373ffffffffffffffffffffffffffffffffffffffff1602179055508260069080519060200190620000bf92919062000122565b508160079080519060200190620000d892919062000122565b508060089080519060200190620000f192919062000122565b506103e86003819055506000600960006101000a81548160ff02191690831515021790555050505050505062000622565b8280546200013090620004e4565b90600052602060002090601f016020900481019282620001545760008555620001a0565b82601f106200016f57805160ff1916838001178555620001a0565b82800160010185558215620001a0579182015b828111156200019f57825182559160200191906001019062000182565b5b509050620001af9190620001b3565b5090565b5b80821115620001ce576000816000905550600101620001b4565b5090565b6000620001e9620001e3846200037c565b62000353565b9050828152602081018484840111156200020257600080fd5b6200020f848285620004ae565b509392505050565b6000815190506200022881620005ee565b92915050565b600082601f8301126200024057600080fd5b815162000252848260208601620001d2565b91505092915050565b6000815190506200026c8162000608565b92915050565b60008060008060008060c087890312156200028c57600080fd5b60006200029c89828a016200025b565b9650506020620002af89828a016200025b565b9550506040620002c289828a0162000217565b945050606087015167ffffffffffffffff811115620002e057600080fd5b620002ee89828a016200022e565b935050608087015167ffffffffffffffff8111156200030c57600080fd5b6200031a89828a016200022e565b92505060a087015167ffffffffffffffff8111156200033857600080fd5b6200034689828a016200022e565b9150509295509295509295565b60006200035f62000372565b90506200036d82826200051a565b919050565b6000604051905090565b600067ffffffffffffffff8211156200039a5762000399620005ae565b5b620003a582620005dd565b9050602081019050919050565b6000620003bf82620004a4565b9150620003cc83620004a4565b9250827fffffffffffffffffffffffffffffffffffffffffffffffffffffffffffffffff0382111562000404576200040362000550565b5b828201905092915050565b60006200041c82620004a4565b91506200042983620004a4565b9250817fffffffffffffffffffffffffffffffffffffffffffffffffffffffffffffffff048311821515161562000465576200046462000550565b5b828202905092915050565b60006200047d8262000484565b9050919050565b600073ffffffffffffffffffffffffffffffffffffffff82169050919050565b6000819050919050565b60005b83811015620004ce578082015181840152602081019050620004b1565b83811115620004de576000848401525b50505050565b60006002820490506001821680620004fd57607f821691505b602082108114156200051457620005136200057f565b5b50919050565b6200052582620005dd565b810181811067ffffffffffffffff82111715620005475762000546620005ae565b5b80604052505050565b7f4e487b7100000000000000000000000000000000000000000000000000000000600052601160045260246000fd5b7f4e487b7100000000000000000000000000000000000000000000000000000000600052602260045260246000fd5b7f4e487b7100000000000000000000000000000000000000000000000000000000600052604160045260246000fd5b6000601f19601f8301169050919050565b620005f98162000470565b81146200060557600080fd5b50565b6200061381620004a4565b81146200061f57600080fd5b50565b610a7b80620006326000396000f3fe6080604052600436106100e15760003560e01c80634377cf651161007f578063937e09b111610059578063937e09b114610261578063c59ee1dc1461028c578063d7bb99ba146102b7578063f851a440146102c1576100f0565b80634377cf65146101e05780634a79d50c1461020b5780637284e41614610236576100f0565b80631a1bdc7c116100bb5780631a1bdc7c1461015557806329dcb0cf146101805780633ccfd60b146101ab57806340193883146101b5576100f0565b806312065fe0146100f557806312424e3f1461012057806319d40b081461012a576100f0565b366100f0576100ee6102ec565b005b600080fd5b34801561010157600080fd5b5061010a610450565b604051610117919061084a565b60405180910390f35b610128610458565b005b34801561013657600080fd5b5061013f610475565b60405161014c91906107cd565b60405180910390f35b34801561016157600080fd5b5061016a610488565b60405161017791906107e8565b60405180910390f35b34801561018c57600080fd5b50610195610516565b6040516101a2919061084a565b60405180910390f35b6101b361051c565b005b3480156101c157600080fd5b506101ca610585565b6040516101d7919061084a565b60405180910390f35b3480156101ec57600080fd5b506101f561058b565b604051610202919061084a565b60405180910390f35b34801561021757600080fd5b50610220610591565b60405161022d91906107e8565b60405180910390f35b34801561024257600080fd5b5061024b61061f565b60405161025891906107e8565b60405180910390f35b34801561026d57600080fd5b506102766106ad565b604051610283919061084a565b60405180910390f35b34801561029857600080fd5b506102a16106b3565b6040516102ae919061084a565b60405180910390f35b6102bf6102ec565b005b3480156102cd57600080fd5b506102d66106b9565b6040516102e39190610789565b60405180910390f35b6005544210610330576040517f08c379a00000000000000000000000000000000000000000000000000000000081526004016103279061082a565b60405180910390fd5b600354341015610375576040517f08c379a000000000000000000000000000000000000000000000000000000000815260040161036c9061080a565b60405180910390fd5b6000600a60003373ffffffffffffffffffffffffffffffffffffffff1673ffffffffffffffffffffffffffffffffffffffff168152602001908152602001600020505034600a60003373ffffffffffffffffffffffffffffffffffffffff1673ffffffffffffffffffffffffffffffffffffffff16815260200190815260200160002081905550346002600082825461040e9190610881565b925050819055507f2daf61dec57a2c194e9e87958b1a40a5c236b5e8c6041655d664ddbd16c2932033346040516104469291906107a4565b60405180910390a1565b600047905090565b6001600960006101000a81548160ff021916908315150217905550565b600960009054906101000a900460ff1681565b6008805461049590610952565b80601f01602080910402602001604051908101604052809291908181526020018280546104c190610952565b801561050e5780601f106104e35761010080835404028352916020019161050e565b820191906000526020600020905b8154815290600101906020018083116104f157829003601f168201915b505050505081565b60055481565b60008054906101000a900473ffffffffffffffffffffffffffffffffffffffff1673ffffffffffffffffffffffffffffffffffffffff166108fc479081150290604051600060405180830381858888f19350505050158015610582573d6000803e3d6000fd5b50565b60045481565b60015481565b6006805461059e90610952565b80601f01602080910402602001604051908101604052809291908181526020018280546105ca90610952565b80156106175780601f106105ec57610100808354040283529160200191610617565b820191906000526020600020905b8154815290600101906020018083116105fa57829003601f168201915b505050505081565b6007805461062c90610952565b80601f016020809104026020016040519081016040528092919081815260200182805461065890610952565b80156106a55780601f1061067a576101008083540402835291602001916106a5565b820191906000526020600020905b81548152906001019060200180831161068857829003601f168201915b505050505081565b60035481565b60025481565b60008054906101000a900473ffffffffffffffffffffffffffffffffffffffff1681565b6106e6816108d7565b82525050565b6106f5816108e9565b82525050565b600061070682610865565b6107108185610870565b935061072081856020860161091f565b610729816109e2565b840191505092915050565b6000610741601e83610870565b915061074c826109f3565b602082019050919050565b6000610764601183610870565b915061076f82610a1c565b602082019050919050565b61078381610915565b82525050565b600060208201905061079e60008301846106dd565b92915050565b60006040820190506107b960008301856106dd565b6107c6602083018461077a565b9392505050565b60006020820190506107e260008301846106ec565b92915050565b6000602082019050818103600083015261080281846106fb565b905092915050565b6000602082019050818103600083015261082381610734565b9050919050565b6000602082019050818103600083015261084381610757565b9050919050565b600060208201905061085f600083018461077a565b92915050565b600081519050919050565b600082825260208201905092915050565b600061088c82610915565b915061089783610915565b9250827fffffffffffffffffffffffffffffffffffffffffffffffffffffffffffffffff038211156108cc576108cb610984565b5b828201905092915050565b60006108e2826108f5565b9050919050565b60008115159050919050565b600073ffffffffffffffffffffffffffffffffffffffff82169050919050565b6000819050919050565b60005b8381101561093d578082015181840152602081019050610922565b8381111561094c576000848401525b50505050565b6000600282049050600182168061096a57607f821691505b6020821081141561097e5761097d6109b3565b5b50919050565b7f4e487b7100000000000000000000000000000000000000000000000000000000600052601160045260246000fd5b7f4e487b7100000000000000000000000000000000000000000000000000000000600052602260045260246000fd5b6000601f19601f8301169050919050565b7f4d696e696d756d20636f6e747269627574696f6e206e6f74206d656574210000600082015250565b7f5468652074696d65206973206f7665722100000000000000000000000000000060008201525056fea2646970667358221220efc98cec589b101f80e67683477642ee20b56fb424df413a2ba3d5430ba2ced864736f6c63430008040033a264697066735822122093598a803c12f8c6c818d0ed676ef218edda42de4d7389af44b1b11e563a330764736f6c63430008040033",
    "linkReferences": {},
    "deployedLinkReferences": {}
}