{
  "_format": "hh-sol-artifact-1",
  "contractName": "CharityFunding",
  "sourceName": "contracts/CharityFunding.sol",
  "abi": [
    {
      "inputs": [
        {
          "internalType": "uint256",
          "name": "_goal",
          "type": "uint256"
        },
        {
          "internalType": "uint256",
          "name": "_deadline",
          "type": "uint256"
        },
        {
          "internalType": "address",
          "name": "_admin",
          "type": "address"
        }
      ],
      "stateMutability": "nonpayable",
      "type": "constructor"
    },
    {
      "anonymous": false,
      "inputs": [
        {
          "indexed": false,
          "internalType": "address",
          "name": "_sender",
          "type": "address"
        },
        {
          "indexed": false,
          "internalType": "uint256",
          "name": "_value",
          "type": "uint256"
        }
      ],
      "name": "ContributeEvent",
      "type": "event"
    },
    {
      "inputs": [],
      "name": "admin",
      "outputs": [
        {
          "internalType": "address",
          "name": "",
          "type": "address"
        }
      ],
      "stateMutability": "view",
      "type": "function"
    },
    {
      "inputs": [],
      "name": "contribute",
      "outputs": [],
      "stateMutability": "payable",
      "type": "function"
    },
    {
      "inputs": [],
      "name": "deadline",
      "outputs": [
        {
          "internalType": "uint256",
          "name": "",
          "type": "uint256"
        }
      ],
      "stateMutability": "view",
      "type": "function"
    },
    {
      "inputs": [],
      "name": "getBalance",
      "outputs": [
        {
          "internalType": "uint256",
          "name": "",
          "type": "uint256"
        }
      ],
      "stateMutability": "view",
      "type": "function"
    },
    {
      "inputs": [],
      "name": "goal",
      "outputs": [
        {
          "internalType": "uint256",
          "name": "",
          "type": "uint256"
        }
      ],
      "stateMutability": "view",
      "type": "function"
    },
    {
      "inputs": [],
      "name": "minimumContribution",
      "outputs": [
        {
          "internalType": "uint256",
          "name": "",
          "type": "uint256"
        }
      ],
      "stateMutability": "view",
      "type": "function"
    },
    {
      "inputs": [],
      "name": "numberOfContributors",
      "outputs": [
        {
          "internalType": "uint256",
          "name": "",
          "type": "uint256"
        }
      ],
      "stateMutability": "view",
      "type": "function"
    },
    {
      "inputs": [],
      "name": "raisedAmount",
      "outputs": [
        {
          "internalType": "uint256",
          "name": "",
          "type": "uint256"
        }
      ],
      "stateMutability": "view",
      "type": "function"
    },
    {
      "stateMutability": "payable",
      "type": "receive"
    }
  ],
  "bytecode": "0x608060405234801561001057600080fd5b50604051610855380380610855833981810160405281019061003291906100d9565b670de0b6b3a764000083610046919061017e565b60048190555081426100589190610128565b600581905550806000806101000a81548173ffffffffffffffffffffffffffffffffffffffff021916908373ffffffffffffffffffffffffffffffffffffffff1602179055506103e8600381905550505050610271565b6000815190506100be81610243565b92915050565b6000815190506100d38161025a565b92915050565b6000806000606084860312156100ee57600080fd5b60006100fc868287016100c4565b935050602061010d868287016100c4565b925050604061011e868287016100af565b9150509250925092565b60006101338261020a565b915061013e8361020a565b9250827fffffffffffffffffffffffffffffffffffffffffffffffffffffffffffffffff0382111561017357610172610214565b5b828201905092915050565b60006101898261020a565b91506101948361020a565b9250817fffffffffffffffffffffffffffffffffffffffffffffffffffffffffffffffff04831182151516156101cd576101cc610214565b5b828202905092915050565b60006101e3826101ea565b9050919050565b600073ffffffffffffffffffffffffffffffffffffffff82169050919050565b6000819050919050565b7f4e487b7100000000000000000000000000000000000000000000000000000000600052601160045260246000fd5b61024c816101d8565b811461025757600080fd5b50565b6102638161020a565b811461026e57600080fd5b50565b6105d5806102806000396000f3fe60806040526004361061007f5760003560e01c8063937e09b11161004e578063937e09b11461013f578063c59ee1dc1461016a578063d7bb99ba14610195578063f851a4401461019f5761008e565b806312065fe01461009357806329dcb0cf146100be57806340193883146100e95780634377cf65146101145761008e565b3661008e5761008c6101ca565b005b600080fd5b34801561009f57600080fd5b506100a861032e565b6040516100b59190610460565b60405180910390f35b3480156100ca57600080fd5b506100d3610336565b6040516100e09190610460565b60405180910390f35b3480156100f557600080fd5b506100fe61033c565b60405161010b9190610460565b60405180910390f35b34801561012057600080fd5b50610129610342565b6040516101369190610460565b60405180910390f35b34801561014b57600080fd5b50610154610348565b6040516101619190610460565b60405180910390f35b34801561017657600080fd5b5061017f61034e565b60405161018c9190610460565b60405180910390f35b61019d6101ca565b005b3480156101ab57600080fd5b506101b4610354565b6040516101c191906103dc565b60405180910390f35b600554421061020e576040517f08c379a000000000000000000000000000000000000000000000000000000000815260040161020590610440565b60405180910390fd5b600354341015610253576040517f08c379a000000000000000000000000000000000000000000000000000000000815260040161024a90610420565b60405180910390fd5b6000600660003373ffffffffffffffffffffffffffffffffffffffff1673ffffffffffffffffffffffffffffffffffffffff168152602001908152602001600020505034600660003373ffffffffffffffffffffffffffffffffffffffff1673ffffffffffffffffffffffffffffffffffffffff1681526020019081526020016000208190555034600260008282546102ec919061048c565b925050819055507f2daf61dec57a2c194e9e87958b1a40a5c236b5e8c6041655d664ddbd16c2932033346040516103249291906103f7565b60405180910390a1565b600047905090565b60055481565b60045481565b60015481565b60035481565b60025481565b60008054906101000a900473ffffffffffffffffffffffffffffffffffffffff1681565b610381816104e2565b82525050565b6000610394601e8361047b565b915061039f8261054d565b602082019050919050565b60006103b760118361047b565b91506103c282610576565b602082019050919050565b6103d681610514565b82525050565b60006020820190506103f16000830184610378565b92915050565b600060408201905061040c6000830185610378565b61041960208301846103cd565b9392505050565b6000602082019050818103600083015261043981610387565b9050919050565b60006020820190508181036000830152610459816103aa565b9050919050565b600060208201905061047560008301846103cd565b92915050565b600082825260208201905092915050565b600061049782610514565b91506104a283610514565b9250827fffffffffffffffffffffffffffffffffffffffffffffffffffffffffffffffff038211156104d7576104d661051e565b5b828201905092915050565b60006104ed826104f4565b9050919050565b600073ffffffffffffffffffffffffffffffffffffffff82169050919050565b6000819050919050565b7f4e487b7100000000000000000000000000000000000000000000000000000000600052601160045260246000fd5b7f4d696e696d756d20636f6e747269627574696f6e206e6f74206d656574210000600082015250565b7f5468652074696d65206973206f7665722100000000000000000000000000000060008201525056fea2646970667358221220c903817d0f2824e524906af3022e7234778bb6769f9ece4e3a3dd23738eb353764736f6c63430008040033",
  "linkReferences": {},
  "deployedLinkReferences": {}
}