{
  "_format": "hh-sol-artifact-1",
  "contractName": "CharityFunding",
  "sourceName": "contracts/CharityFunding.sol",
  "abi": [
    {
      "inputs": [
        {
          "internalType": "uint256",
          "name": "_goal",
          "type": "uint256"
        },
        {
          "internalType": "uint256",
          "name": "_deadline",
          "type": "uint256"
        },
        {
          "internalType": "address",
          "name": "_admin",
          "type": "address"
        },
        {
          "internalType": "string",
          "name": "_title",
          "type": "string"
        },
        {
          "internalType": "string",
          "name": "_description",
          "type": "string"
        }
      ],
      "stateMutability": "nonpayable",
      "type": "constructor"
    },
    {
      "anonymous": false,
      "inputs": [
        {
          "indexed": false,
          "internalType": "address",
          "name": "_sender",
          "type": "address"
        },
        {
          "indexed": false,
          "internalType": "uint256",
          "name": "_value",
          "type": "uint256"
        }
      ],
      "name": "ContributeEvent",
      "type": "event"
    },
    {
      "inputs": [],
      "name": "admin",
      "outputs": [
        {
          "internalType": "address",
          "name": "",
          "type": "address"
        }
      ],
      "stateMutability": "view",
      "type": "function"
    },
    {
      "inputs": [],
      "name": "contribute",
      "outputs": [],
      "stateMutability": "payable",
      "type": "function"
    },
    {
      "inputs": [],
      "name": "deadline",
      "outputs": [
        {
          "internalType": "uint256",
          "name": "",
          "type": "uint256"
        }
      ],
      "stateMutability": "view",
      "type": "function"
    },
    {
      "inputs": [],
      "name": "description",
      "outputs": [
        {
          "internalType": "string",
          "name": "",
          "type": "string"
        }
      ],
      "stateMutability": "view",
      "type": "function"
    },
    {
      "inputs": [],
      "name": "getBalance",
      "outputs": [
        {
          "internalType": "uint256",
          "name": "",
          "type": "uint256"
        }
      ],
      "stateMutability": "view",
      "type": "function"
    },
    {
      "inputs": [],
      "name": "goal",
      "outputs": [
        {
          "internalType": "uint256",
          "name": "",
          "type": "uint256"
        }
      ],
      "stateMutability": "view",
      "type": "function"
    },
    {
      "inputs": [],
      "name": "minimumContribution",
      "outputs": [
        {
          "internalType": "uint256",
          "name": "",
          "type": "uint256"
        }
      ],
      "stateMutability": "view",
      "type": "function"
    },
    {
      "inputs": [],
      "name": "numberOfContributors",
      "outputs": [
        {
          "internalType": "uint256",
          "name": "",
          "type": "uint256"
        }
      ],
      "stateMutability": "view",
      "type": "function"
    },
    {
      "inputs": [],
      "name": "raisedAmount",
      "outputs": [
        {
          "internalType": "uint256",
          "name": "",
          "type": "uint256"
        }
      ],
      "stateMutability": "view",
      "type": "function"
    },
    {
      "inputs": [],
      "name": "title",
      "outputs": [
        {
          "internalType": "string",
          "name": "",
          "type": "string"
        }
      ],
      "stateMutability": "view",
      "type": "function"
    },
    {
      "inputs": [],
      "name": "withdraw",
      "outputs": [],
      "stateMutability": "payable",
      "type": "function"
    },
    {
      "stateMutability": "payable",
      "type": "receive"
    }
  ],
  "bytecode": "0x60806040523480156200001157600080fd5b5060405162000eb638038062000eb683398181016040528101906200003791906200023d565b670de0b6b3a7640000856200004d9190620003ad565b600481905550834262000061919062000350565b600581905550826000806101000a81548173ffffffffffffffffffffffffffffffffffffffff021916908373ffffffffffffffffffffffffffffffffffffffff1602179055508160069080519060200190620000bf929190620000ed565b508060079080519060200190620000d8929190620000ed565b506103e86003819055505050505050620005c0565b828054620000fb9062000482565b90600052602060002090601f0160209004810192826200011f57600085556200016b565b82601f106200013a57805160ff19168380011785556200016b565b828001600101855582156200016b579182015b828111156200016a5782518255916020019190600101906200014d565b5b5090506200017a91906200017e565b5090565b5b80821115620001995760008160009055506001016200017f565b5090565b6000620001b4620001ae846200031a565b620002f1565b905082815260208101848484011115620001cd57600080fd5b620001da8482856200044c565b509392505050565b600081519050620001f3816200058c565b92915050565b600082601f8301126200020b57600080fd5b81516200021d8482602086016200019d565b91505092915050565b6000815190506200023781620005a6565b92915050565b600080600080600060a086880312156200025657600080fd5b6000620002668882890162000226565b9550506020620002798882890162000226565b94505060406200028c88828901620001e2565b935050606086015167ffffffffffffffff811115620002aa57600080fd5b620002b888828901620001f9565b925050608086015167ffffffffffffffff811115620002d657600080fd5b620002e488828901620001f9565b9150509295509295909350565b6000620002fd62000310565b90506200030b8282620004b8565b919050565b6000604051905090565b600067ffffffffffffffff8211156200033857620003376200054c565b5b62000343826200057b565b9050602081019050919050565b60006200035d8262000442565b91506200036a8362000442565b9250827fffffffffffffffffffffffffffffffffffffffffffffffffffffffffffffffff03821115620003a257620003a1620004ee565b5b828201905092915050565b6000620003ba8262000442565b9150620003c78362000442565b9250817fffffffffffffffffffffffffffffffffffffffffffffffffffffffffffffffff0483118215151615620004035762000402620004ee565b5b828202905092915050565b60006200041b8262000422565b9050919050565b600073ffffffffffffffffffffffffffffffffffffffff82169050919050565b6000819050919050565b60005b838110156200046c5780820151818401526020810190506200044f565b838111156200047c576000848401525b50505050565b600060028204905060018216806200049b57607f821691505b60208210811415620004b257620004b16200051d565b5b50919050565b620004c3826200057b565b810181811067ffffffffffffffff82111715620004e557620004e46200054c565b5b80604052505050565b7f4e487b7100000000000000000000000000000000000000000000000000000000600052601160045260246000fd5b7f4e487b7100000000000000000000000000000000000000000000000000000000600052602260045260246000fd5b7f4e487b7100000000000000000000000000000000000000000000000000000000600052604160045260246000fd5b6000601f19601f8301169050919050565b62000597816200040e565b8114620005a357600080fd5b50565b620005b18162000442565b8114620005bd57600080fd5b50565b6108e680620005d06000396000f3fe6080604052600436106100a05760003560e01c80634a79d50c116100645780634a79d50c1461016a5780637284e41614610195578063937e09b1146101c0578063c59ee1dc146101eb578063d7bb99ba14610216578063f851a44014610220576100af565b806312065fe0146100b457806329dcb0cf146100df5780633ccfd60b1461010a57806340193883146101145780634377cf651461013f576100af565b366100af576100ad61024b565b005b600080fd5b3480156100c057600080fd5b506100c96103af565b6040516100d691906106c1565b60405180910390f35b3480156100eb57600080fd5b506100f46103b7565b60405161010191906106c1565b60405180910390f35b6101126103bd565b005b34801561012057600080fd5b50610129610426565b60405161013691906106c1565b60405180910390f35b34801561014b57600080fd5b5061015461042c565b60405161016191906106c1565b60405180910390f35b34801561017657600080fd5b5061017f610432565b60405161018c919061065f565b60405180910390f35b3480156101a157600080fd5b506101aa6104c0565b6040516101b7919061065f565b60405180910390f35b3480156101cc57600080fd5b506101d561054e565b6040516101e291906106c1565b60405180910390f35b3480156101f757600080fd5b50610200610554565b60405161020d91906106c1565b60405180910390f35b61021e61024b565b005b34801561022c57600080fd5b5061023561055a565b604051610242919061061b565b60405180910390f35b600554421061028f576040517f08c379a0000000000000000000000000000000000000000000000000000000008152600401610286906106a1565b60405180910390fd5b6003543410156102d4576040517f08c379a00000000000000000000000000000000000000000000000000000000081526004016102cb90610681565b60405180910390fd5b6000600860003373ffffffffffffffffffffffffffffffffffffffff1673ffffffffffffffffffffffffffffffffffffffff168152602001908152602001600020505034600860003373ffffffffffffffffffffffffffffffffffffffff1673ffffffffffffffffffffffffffffffffffffffff16815260200190815260200160002081905550346002600082825461036d91906106f8565b925050819055507f2daf61dec57a2c194e9e87958b1a40a5c236b5e8c6041655d664ddbd16c2932033346040516103a5929190610636565b60405180910390a1565b600047905090565b60055481565b60008054906101000a900473ffffffffffffffffffffffffffffffffffffffff1673ffffffffffffffffffffffffffffffffffffffff166108fc479081150290604051600060405180830381858888f19350505050158015610423573d6000803e3d6000fd5b50565b60045481565b60015481565b6006805461043f906107bd565b80601f016020809104026020016040519081016040528092919081815260200182805461046b906107bd565b80156104b85780601f1061048d576101008083540402835291602001916104b8565b820191906000526020600020905b81548152906001019060200180831161049b57829003601f168201915b505050505081565b600780546104cd906107bd565b80601f01602080910402602001604051908101604052809291908181526020018280546104f9906107bd565b80156105465780601f1061051b57610100808354040283529160200191610546565b820191906000526020600020905b81548152906001019060200180831161052957829003601f168201915b505050505081565b60035481565b60025481565b60008054906101000a900473ffffffffffffffffffffffffffffffffffffffff1681565b6105878161074e565b82525050565b6000610598826106dc565b6105a281856106e7565b93506105b281856020860161078a565b6105bb8161084d565b840191505092915050565b60006105d3601e836106e7565b91506105de8261085e565b602082019050919050565b60006105f66011836106e7565b915061060182610887565b602082019050919050565b61061581610780565b82525050565b6000602082019050610630600083018461057e565b92915050565b600060408201905061064b600083018561057e565b610658602083018461060c565b9392505050565b60006020820190508181036000830152610679818461058d565b905092915050565b6000602082019050818103600083015261069a816105c6565b9050919050565b600060208201905081810360008301526106ba816105e9565b9050919050565b60006020820190506106d6600083018461060c565b92915050565b600081519050919050565b600082825260208201905092915050565b600061070382610780565b915061070e83610780565b9250827fffffffffffffffffffffffffffffffffffffffffffffffffffffffffffffffff03821115610743576107426107ef565b5b828201905092915050565b600061075982610760565b9050919050565b600073ffffffffffffffffffffffffffffffffffffffff82169050919050565b6000819050919050565b60005b838110156107a857808201518184015260208101905061078d565b838111156107b7576000848401525b50505050565b600060028204905060018216806107d557607f821691505b602082108114156107e9576107e861081e565b5b50919050565b7f4e487b7100000000000000000000000000000000000000000000000000000000600052601160045260246000fd5b7f4e487b7100000000000000000000000000000000000000000000000000000000600052602260045260246000fd5b6000601f19601f8301169050919050565b7f4d696e696d756d20636f6e747269627574696f6e206e6f74206d656574210000600082015250565b7f5468652074696d65206973206f7665722100000000000000000000000000000060008201525056fea264697066735822122040ed00396af8dd5716fdbc0bb04c7fe7378f7eed57af485be5a7c799113b049664736f6c63430008040033",
  "linkReferences": {},
  "deployedLinkReferences": {}
}