{
  "_format": "hh-sol-artifact-1",
  "contractName": "CharityFunding",
  "sourceName": "contracts/CharityFunding.sol",
  "abi": [
    {
      "inputs": [
        {
          "internalType": "uint256",
          "name": "_goal",
          "type": "uint256"
        },
        {
          "internalType": "uint256",
          "name": "_deadline",
          "type": "uint256"
        },
        {
          "internalType": "address",
          "name": "_admin",
          "type": "address"
        },
        {
          "internalType": "string",
          "name": "_title",
          "type": "string"
        },
        {
          "internalType": "string",
          "name": "_description",
          "type": "string"
        },
        {
          "internalType": "string",
          "name": "_urlPhoto",
          "type": "string"
        }
      ],
      "stateMutability": "nonpayable",
      "type": "constructor"
    },
    {
      "anonymous": false,
      "inputs": [
        {
          "indexed": false,
          "internalType": "address",
          "name": "_sender",
          "type": "address"
        },
        {
          "indexed": false,
          "internalType": "uint256",
          "name": "_value",
          "type": "uint256"
        }
      ],
      "name": "ContributeEvent",
      "type": "event"
    },
    {
      "inputs": [],
      "name": "admin",
      "outputs": [
        {
          "internalType": "address",
          "name": "",
          "type": "address"
        }
      ],
      "stateMutability": "view",
      "type": "function"
    },
    {
      "inputs": [],
      "name": "approve",
      "outputs": [],
      "stateMutability": "payable",
      "type": "function"
    },
    {
      "inputs": [],
      "name": "approved",
      "outputs": [
        {
          "internalType": "bool",
          "name": "",
          "type": "bool"
        }
      ],
      "stateMutability": "view",
      "type": "function"
    },
    {
      "inputs": [],
      "name": "contribute",
      "outputs": [],
      "stateMutability": "payable",
      "type": "function"
    },
    {
      "inputs": [],
      "name": "deadline",
      "outputs": [
        {
          "internalType": "uint256",
          "name": "",
          "type": "uint256"
        }
      ],
      "stateMutability": "view",
      "type": "function"
    },
    {
      "inputs": [],
      "name": "description",
      "outputs": [
        {
          "internalType": "string",
          "name": "",
          "type": "string"
        }
      ],
      "stateMutability": "view",
      "type": "function"
    },
    {
      "inputs": [],
      "name": "getBalance",
      "outputs": [
        {
          "internalType": "uint256",
          "name": "",
          "type": "uint256"
        }
      ],
      "stateMutability": "view",
      "type": "function"
    },
    {
      "inputs": [],
      "name": "goal",
      "outputs": [
        {
          "internalType": "uint256",
          "name": "",
          "type": "uint256"
        }
      ],
      "stateMutability": "view",
      "type": "function"
    },
    {
      "inputs": [],
      "name": "minimumContribution",
      "outputs": [
        {
          "internalType": "uint256",
          "name": "",
          "type": "uint256"
        }
      ],
      "stateMutability": "view",
      "type": "function"
    },
    {
      "inputs": [],
      "name": "numberOfContributors",
      "outputs": [
        {
          "internalType": "uint256",
          "name": "",
          "type": "uint256"
        }
      ],
      "stateMutability": "view",
      "type": "function"
    },
    {
      "inputs": [],
      "name": "raisedAmount",
      "outputs": [
        {
          "internalType": "uint256",
          "name": "",
          "type": "uint256"
        }
      ],
      "stateMutability": "view",
      "type": "function"
    },
    {
      "inputs": [],
      "name": "title",
      "outputs": [
        {
          "internalType": "string",
          "name": "",
          "type": "string"
        }
      ],
      "stateMutability": "view",
      "type": "function"
    },
    {
      "inputs": [],
      "name": "urlPhoto",
      "outputs": [
        {
          "internalType": "string",
          "name": "",
          "type": "string"
        }
      ],
      "stateMutability": "view",
      "type": "function"
    },
    {
      "inputs": [],
      "name": "withdraw",
      "outputs": [],
      "stateMutability": "payable",
      "type": "function"
    },
    {
      "stateMutability": "payable",
      "type": "receive"
    }
  ],
  "bytecode": "0x60806040523480156200001157600080fd5b50604051620010ad380380620010ad833981810160405281019062000037919062000272565b670de0b6b3a7640000866200004d91906200040f565b6004819055508442620000619190620003b2565b600581905550836000806101000a81548173ffffffffffffffffffffffffffffffffffffffff021916908373ffffffffffffffffffffffffffffffffffffffff1602179055508260069080519060200190620000bf92919062000122565b508160079080519060200190620000d892919062000122565b508060089080519060200190620000f192919062000122565b506103e86003819055506000600960006101000a81548160ff02191690831515021790555050505050505062000622565b8280546200013090620004e4565b90600052602060002090601f016020900481019282620001545760008555620001a0565b82601f106200016f57805160ff1916838001178555620001a0565b82800160010185558215620001a0579182015b828111156200019f57825182559160200191906001019062000182565b5b509050620001af9190620001b3565b5090565b5b80821115620001ce576000816000905550600101620001b4565b5090565b6000620001e9620001e3846200037c565b62000353565b9050828152602081018484840111156200020257600080fd5b6200020f848285620004ae565b509392505050565b6000815190506200022881620005ee565b92915050565b600082601f8301126200024057600080fd5b815162000252848260208601620001d2565b91505092915050565b6000815190506200026c8162000608565b92915050565b60008060008060008060c087890312156200028c57600080fd5b60006200029c89828a016200025b565b9650506020620002af89828a016200025b565b9550506040620002c289828a0162000217565b945050606087015167ffffffffffffffff811115620002e057600080fd5b620002ee89828a016200022e565b935050608087015167ffffffffffffffff8111156200030c57600080fd5b6200031a89828a016200022e565b92505060a087015167ffffffffffffffff8111156200033857600080fd5b6200034689828a016200022e565b9150509295509295509295565b60006200035f62000372565b90506200036d82826200051a565b919050565b6000604051905090565b600067ffffffffffffffff8211156200039a5762000399620005ae565b5b620003a582620005dd565b9050602081019050919050565b6000620003bf82620004a4565b9150620003cc83620004a4565b9250827fffffffffffffffffffffffffffffffffffffffffffffffffffffffffffffffff0382111562000404576200040362000550565b5b828201905092915050565b60006200041c82620004a4565b91506200042983620004a4565b9250817fffffffffffffffffffffffffffffffffffffffffffffffffffffffffffffffff048311821515161562000465576200046462000550565b5b828202905092915050565b60006200047d8262000484565b9050919050565b600073ffffffffffffffffffffffffffffffffffffffff82169050919050565b6000819050919050565b60005b83811015620004ce578082015181840152602081019050620004b1565b83811115620004de576000848401525b50505050565b60006002820490506001821680620004fd57607f821691505b602082108114156200051457620005136200057f565b5b50919050565b6200052582620005dd565b810181811067ffffffffffffffff82111715620005475762000546620005ae565b5b80604052505050565b7f4e487b7100000000000000000000000000000000000000000000000000000000600052601160045260246000fd5b7f4e487b7100000000000000000000000000000000000000000000000000000000600052602260045260246000fd5b7f4e487b7100000000000000000000000000000000000000000000000000000000600052604160045260246000fd5b6000601f19601f8301169050919050565b620005f98162000470565b81146200060557600080fd5b50565b6200061381620004a4565b81146200061f57600080fd5b50565b610a7b80620006326000396000f3fe6080604052600436106100e15760003560e01c80634377cf651161007f578063937e09b111610059578063937e09b114610261578063c59ee1dc1461028c578063d7bb99ba146102b7578063f851a440146102c1576100f0565b80634377cf65146101e05780634a79d50c1461020b5780637284e41614610236576100f0565b80631a1bdc7c116100bb5780631a1bdc7c1461015557806329dcb0cf146101805780633ccfd60b146101ab57806340193883146101b5576100f0565b806312065fe0146100f557806312424e3f1461012057806319d40b081461012a576100f0565b366100f0576100ee6102ec565b005b600080fd5b34801561010157600080fd5b5061010a610450565b604051610117919061084a565b60405180910390f35b610128610458565b005b34801561013657600080fd5b5061013f610475565b60405161014c91906107cd565b60405180910390f35b34801561016157600080fd5b5061016a610488565b60405161017791906107e8565b60405180910390f35b34801561018c57600080fd5b50610195610516565b6040516101a2919061084a565b60405180910390f35b6101b361051c565b005b3480156101c157600080fd5b506101ca610585565b6040516101d7919061084a565b60405180910390f35b3480156101ec57600080fd5b506101f561058b565b604051610202919061084a565b60405180910390f35b34801561021757600080fd5b50610220610591565b60405161022d91906107e8565b60405180910390f35b34801561024257600080fd5b5061024b61061f565b60405161025891906107e8565b60405180910390f35b34801561026d57600080fd5b506102766106ad565b604051610283919061084a565b60405180910390f35b34801561029857600080fd5b506102a16106b3565b6040516102ae919061084a565b60405180910390f35b6102bf6102ec565b005b3480156102cd57600080fd5b506102d66106b9565b6040516102e39190610789565b60405180910390f35b6005544210610330576040517f08c379a00000000000000000000000000000000000000000000000000000000081526004016103279061082a565b60405180910390fd5b600354341015610375576040517f08c379a000000000000000000000000000000000000000000000000000000000815260040161036c9061080a565b60405180910390fd5b6000600a60003373ffffffffffffffffffffffffffffffffffffffff1673ffffffffffffffffffffffffffffffffffffffff168152602001908152602001600020505034600a60003373ffffffffffffffffffffffffffffffffffffffff1673ffffffffffffffffffffffffffffffffffffffff16815260200190815260200160002081905550346002600082825461040e9190610881565b925050819055507f2daf61dec57a2c194e9e87958b1a40a5c236b5e8c6041655d664ddbd16c2932033346040516104469291906107a4565b60405180910390a1565b600047905090565b6001600960006101000a81548160ff021916908315150217905550565b600960009054906101000a900460ff1681565b6008805461049590610952565b80601f01602080910402602001604051908101604052809291908181526020018280546104c190610952565b801561050e5780601f106104e35761010080835404028352916020019161050e565b820191906000526020600020905b8154815290600101906020018083116104f157829003601f168201915b505050505081565b60055481565b60008054906101000a900473ffffffffffffffffffffffffffffffffffffffff1673ffffffffffffffffffffffffffffffffffffffff166108fc479081150290604051600060405180830381858888f19350505050158015610582573d6000803e3d6000fd5b50565b60045481565b60015481565b6006805461059e90610952565b80601f01602080910402602001604051908101604052809291908181526020018280546105ca90610952565b80156106175780601f106105ec57610100808354040283529160200191610617565b820191906000526020600020905b8154815290600101906020018083116105fa57829003601f168201915b505050505081565b6007805461062c90610952565b80601f016020809104026020016040519081016040528092919081815260200182805461065890610952565b80156106a55780601f1061067a576101008083540402835291602001916106a5565b820191906000526020600020905b81548152906001019060200180831161068857829003601f168201915b505050505081565b60035481565b60025481565b60008054906101000a900473ffffffffffffffffffffffffffffffffffffffff1681565b6106e6816108d7565b82525050565b6106f5816108e9565b82525050565b600061070682610865565b6107108185610870565b935061072081856020860161091f565b610729816109e2565b840191505092915050565b6000610741601e83610870565b915061074c826109f3565b602082019050919050565b6000610764601183610870565b915061076f82610a1c565b602082019050919050565b61078381610915565b82525050565b600060208201905061079e60008301846106dd565b92915050565b60006040820190506107b960008301856106dd565b6107c6602083018461077a565b9392505050565b60006020820190506107e260008301846106ec565b92915050565b6000602082019050818103600083015261080281846106fb565b905092915050565b6000602082019050818103600083015261082381610734565b9050919050565b6000602082019050818103600083015261084381610757565b9050919050565b600060208201905061085f600083018461077a565b92915050565b600081519050919050565b600082825260208201905092915050565b600061088c82610915565b915061089783610915565b9250827fffffffffffffffffffffffffffffffffffffffffffffffffffffffffffffffff038211156108cc576108cb610984565b5b828201905092915050565b60006108e2826108f5565b9050919050565b60008115159050919050565b600073ffffffffffffffffffffffffffffffffffffffff82169050919050565b6000819050919050565b60005b8381101561093d578082015181840152602081019050610922565b8381111561094c576000848401525b50505050565b6000600282049050600182168061096a57607f821691505b6020821081141561097e5761097d6109b3565b5b50919050565b7f4e487b7100000000000000000000000000000000000000000000000000000000600052601160045260246000fd5b7f4e487b7100000000000000000000000000000000000000000000000000000000600052602260045260246000fd5b6000601f19601f8301169050919050565b7f4d696e696d756d20636f6e747269627574696f6e206e6f74206d656574210000600082015250565b7f5468652074696d65206973206f7665722100000000000000000000000000000060008201525056fea2646970667358221220dc829f1ed6ff7db372bbe0bb9bbb96e3fae4cf63b3fd4303f61e531a4d1fbd1f64736f6c63430008040033",
  "linkReferences": {},
  "deployedLinkReferences": {}
}